S012000073656375726974792E632E7372656309
S11300000C9434000C943E000C943E000C943E007E
S11300100C943E000C943E000C943E000C943E0064
S11300200C943E000C943E000C943E000C943E0054
S11300300C943E000C943E000C943E000C943E0044
S11300400C943E000C943E000C943E000C943E0034
S11300500C943E000C943E000C943E000C943E0024
S11300600C943E000C943E0011241FBECFEFD8E048
S1130070DEBFCDBF0E9440000C944F000C940000E2
S113008084B184B987B1806487B9199B04C088B1ED
S1130090806488B9FACF88B18F7B88B9F6CFF89499
S10500A0FFCF8C
S9030000FC
